:100000000C040010DD070000450800004508000052
:1000100045080000450800004508000000000000F9
:100020000000000000000000000000004508000083
:1000300045080000000000004508000045080000D9
:10004000450800004508000045080000450800007C
:10005000450800004508000045080000450800006C
:10006000450800004508000045080000450800005C
:10007000450800004508000045080000450800004C
:10008000450800004508000045080000450800003C
:10009000450800004508000045080000450800002C
:1000A000450800004508000045080000450800001C
:1000B000450800004508000045080000450800000C
:1000C00080B582B000AF00237B600CE000233B6072
:1000D00002E03B6801333B603A68064B9A42F8DD28
:1000E0007B6801337B607B68312BEFDDBD4602B05E
:1000F00080BDC0460F27000090B58BB000AF002335
:10010000FB617F4B181C00F031FA0420012100F044
:1001100075FA042000F0C6FA0420012100F098FAD4
:10012000012000F04FFAC0460420012100F02EFB10
:10013000031C002BF8D03C1C2634042000F00CFBE0
:10014000031C23803B1C26331B88181C01F0E4FB96
:10015000031C0C1C181C211C644B634A01F036F96B
:10016000031C0C1C181C211C614A624B01F02EF967
:10017000031C0C1C181C211C5F4A604B00F04AFE3B
:10018000031C0C1C181C211C01F092FB031C3B627D
:100190000020052100F086FC202000F037FD202003
:1001A00000F034FD202000F031FD202000F02EFD75
:1001B0000020052100F076FC0023FB611BE03B6A78
:1001C000181C0A2100F01AFE0B1CDAB23B1C1B3370
:1001D00030321A703B6A181C0A2100F0B9FD031C6A
:1001E0003B623A1CFB69D3183A1C1B3212781A7016
:1001F000FB690133FB613B6A002BE0D13B1C2433DC
:10020000FA691A800FE03B1C24331B88013B3A1C1F
:10021000D35C181C00F0FAFC3B1C24333A1C24323B
:100220001288013A1A803B1C24331B88002BEAD128
:100230000120052100F036FC202000F0E7FC202002
:1002400000F0E4FC202000F0E1FC202000F0DEFCC7
:100250000120052100F026FC0023FB6122E03B1C6D
:1002600026331B88181C0A2100F068FD0B1C9BB26A
:10027000DAB23B1C1B3330321A703C1C26343B1C58
:1002800026331B88181C0A2100F014FD031C238050
:100290003A1CFB69D3183A1C1B3212781A70FB699E
:1002A0000133FB613B1C26331B88002BD7D13B1C41
:1002B0002433FA691A800FE03B1C24331B88013B6E
:1002C0003A1CD35C181C00F0A1FC3B1C24333A1CE4
:1002D00024321288013A1A803B1C24331B88002BDD
:1002E000EAD1FFF7EDFE1BE76666666666660A40C2
:1002F00000000000000059400000000000F88F409E
:1003000040420F00C046C04680B582B000AF2A4BC5
:100310002A4A1A602A4B01221A64294B01225A6484
:10032000274B00225A64264B01225A64C046244BB4
:100330005A6C01231340FAD0214B9B687B607B6889
:100340005B0A5B027B601E4B7A6823210A439A603A
:100350001B4A1B498E239B00CB588021181C8843C5
:10036000011C8E239B00D150C046154BDA68012337
:100370001340FAD0124B03221A67114B01225A671D
:100380000F4B00225A670E4B01225A67C0460C4B96
:100390005A6F01231340FAD0094B01229A67064B8A
:1003A0001B689A00074B1A60064B1A68064B1A60C6
:1003B000C046BD4602B080BD00000010001BB70063
:1003C00000800440040000100800001080B582B0D6
:1003D00000AF184B00221A62164A16498E239B0062
:1003E000CB582021181C8843011C8E239B00D15020
:1003F00000237B6002E07B6801337B607B68FF2B1E
:10040000F9D9FFF781FF0B4A0A498E239B00C9588F
:10041000094B19408E239B00D150064A0549802381
:10042000CB588021490219438023D150C046BD4694
:1004300002B080BD00800440FFFAFFFF80B500AF2E
:1004400000F020FC064B0020191C00F0EBFB054BD4
:100450000120191C00F0E6FBFFF74EFEFEE7C04648
:10046000C8190000D019000080B582B000AF7860D4
:100470000A1CFB1C1A70FB1C1B78002B0BD10E4AAC
:100480000D498023CB587968C94319400B4B19405B
:100490008023D1500DE0FB1C1B78012B09D1064AAB
:1004A00005498023C9587868044B034019438023C9
:1004B000D150BD4602B080BD00800440FFBF0500A2
:1004C00080B584B000AF78600A1CFB1C1A70154A16
:1004D0008E239B00D258FF231340FB60FB688022D1
:1004E00012011343FB60FB1C1B78012B0AD10D4A40
:1004F0007B68DB43F9681940FF2319408E239B007A
:10050000D1500CE0FB1C1B78002B08D1054A796800
:10051000FF231940FB6819438E239B00D150BD4631
:1005200004B080BD0080044080B584B000AF786026
:100530000A1CFB1C1A707B680B4A9B181B68FB602B
:10054000FB6807229343FB60FB1C1A7807231340C8
:10055000FA681343FB607B68034A9B18FA681A60C9
:10056000BD4604B080BDC0460040044080B584B0A4
:1005700000AF78600023FB6010200121FFF7A0FF8F
:1005800080239B01181C0121FFF76EFF0B4B0022FB
:100590001A600B4B1B68BB60B868796800F08AFB77
:1005A000031C013BBB60BB681B02FA681343FB6082
:1005B000024BFA681A60BD4604B080BD00C001401D
:1005C0000800001080B582B000AF021CFB1D1A703D
:1005D000084B084A1168084A0A401A60054B054A48
:1005E0001168FA1D127812060A431A60BD4602B05D
:1005F00080BDC04600C00140FFFFFFF890B583B04A
:1006000000AF0A1CFB1D011C1970BB1D1A700F4B9B
:100610000E4AD268F91D09780120041C8C40211C67
:10062000C9430A40DA60BB1D1B78002B0AD0074B78
:10063000064AD168FA1D12780120041C9440221C3D
:100640000A43DA60BD4603B090BDC04600C0014019
:1006500090B583B000AF0A1CFB1D011C1970BB1DB7
:100660001A70BB1D1B78012B0BD10D4B0C4A116866
:10067000FA1D12780120041C9440221C0A431A60BF
:100680000BE0074B064A1268F91D09780120041C8B
:100690008C40211CC9430A401A60BD4603B090BD7E
:1006A00000C0014080B584B000AF021CFB1D1A7071
:1006B000FB1D1B78072B47D89A00254BD3181B68C6
:1006C0009F4674200221FFF72FFF7423FB6030E068
:1006D00078200221FFF728FF7823FB6029E07C20A7
:1006E0000221FFF721FF7C23FB6022E08020022112
:1006F000FFF71AFF8023FB601BE090200221FFF729
:1007000013FF9023FB6014E094200121FFF70CFFFE
:100710009423FB600DE06C200121FFF705FF6C23A3
:10072000FB6006E098200121FFF7FEFE9823FB60A6
:10073000C046FB6807495B18FA68064952181268F8
:1007400080218A431A6000E0C046BD4604B080BDE7
:10075000D81900000040044080B584B000AF021CEE
:10076000FB1D1A70FB1D1B789B00074A9B181B681A
:10077000FB60FB689B099BB29B059B0D9BB2181C01
:10078000BD4604B080BDC04610C0014080B584B0F5
:1007900000AF021C3960FB1D1A70FB1D1B789B000B
:1007A0000D4A9B181B68FB603B68002B04D0FB685C
:1007B000DB0FDB07FB6004E0FA688023DB051340F6
:1007C000FB60FB68002B01D0012300E00023181C14
:1007D000BD4604B080BDC04610C0014080B582B0A7
:1007E00000AF134B7B60134B3B6009E07B681A68DA
:1007F0003B681A603B6804333B607B6804337B6072
:100800003A680D4B9A42F1D30C4B3B6005E03B68D4
:1008100000221A603B6804333B603A68084B9A42F6
:10082000F5D3FFF7D3FDFFF709FEBD4602B080BD4B
:10083000781A0000000000100C0000100C000010DE
:100840000C00001080B500AFFEE7C04680B584B054
:1008500000AF78600023FB600023BB600023FB60D7
:100860000BE00023BB6002E0BB680133BB60BB68E8
:10087000222BF9DDFB680133FB60FA687B689A4242
:10088000EFDBBD4604B080BD80B500AF1E4A1E49F7
:1008900080231B02C9581D4B194080231B02D150D5
:1008A0001B4A1B491B4BCB580421181C8843011CB5
:1008B000184BD150164A1649164BCB5803211943F1
:1008C000144BD150C046104A124BD25880239B0083
:1008D0001340F8D10E4A0E490E4BCB580321181C79
:1008E0008843011C0B4BD150074A074980231B0248
:1008F000CB58F0218900194380231B02D15064207A
:10090000FFF7A4FFBD4680BD000002503FFCFFFF83
:1009100000000350FC3F000080B584B000AF021C13
:10092000FB1D1A700023FB600023BB60FB1D1B78BE
:10093000FB60FB681A090F231340FB60FB689A01F8
:10094000F0239B001340BB60394A3949394BCB58DF
:100950000421181C8843011C364BD150344A3449B9
:10096000344BCB5801211943324BD150324A3249D2
:10097000304BC958314B19402E4BD1502E4A2E497D
:100980002C4BC958BB6819432A4BD1506420FFF740
:100990005DFF274A2649274BCB580121181C884365
:1009A000011C244BD150FB1D1B78FB60FA680F2300
:1009B0001340FB60FB689A01F0239B001340BB606F
:1009C0006420FFF743FF1A4A19491A4BCB580421F8
:1009D000181C8843011C174BD150154A1449154B5C
:1009E000CB5801211943134BD150134A1249114BD3
:1009F000C958124B19400F4BD1500F4A0E490D4B9D
:100A0000C958BB6819430B4BD1506420FFF71EFF38
:100A1000074A0749074BCB580121181C8843011C82
:100A2000044BD150FFF730FFBD4604B080BDC04637
:100A300000000350FC3F0000000002503FFCFFFF9D
:100A400080B500AF104A104980231B02CB58072104
:100A5000194380231B02D1500B4A0B490B4BCB5837
:100A60000721181C8843011C084BD150084A08492B
:100A700080231B02CB58F0218900194380231B02DD
:100A8000D150BD4680BDC04600000350FC3F000071
:100A90000000025080B500AF0120FFF73DFFBD46CA
:100AA00080BDC04680B584B000AF78603960002357
:100AB000FB607B68012B06D93B680F2B03D9012310
:100AC0005B42FB6014E07B68002B07D13B68DBB224
:100AD000803BDBB2181CFFF71FFF09E07B68012B8E
:100AE00006D13B68DBB2403BDBB2181CFFF714FFBA
:100AF000FB68181CBD4604B080BDC04680B584B0FC
:100B000000AF021CFB1D1A703B1C0F3300221A7031
:100B10000023BB603B1C0F33FA1D12781A703B1C7C
:100B20000F333A1C0F32127812091A703B1C0F3324
:100B30001B789B011A1CF0239B001340BB602F4ABB
:100B40002E492F4BCB58052119432D4BD1502D4AFF
:100B50002C492B4BC9582C4B1940294BD150294AB1
:100B60002849274BC958BB681943254BD150234A04
:100B70002249234BCB580121181C8843011C204BD0
:100B8000D1503B1C0F33FA1D12781A703B1C0F33E7
:100B90003A1C0F3211780F220A401A703B1C0F3397
:100BA0001B789B011A1CF0239B001340BB60134A67
:100BB0001249134BCB5805211943114BD150114AFF
:100BC00010490F4BC958104B19400D4BD1500D4ACD
:100BD0000C490B4BC958BB681943094BD150074A04
:100BE0000649074BCB580121181C8843011C044BB4
:100BF000D150FFF749FEBD4604B080BD0000035050
:100C0000FC3F0000000002503FFCFFFF80B582B0B7
:100C100000AF78607B68DBB2181CFFF76FFFBD4642
:100C200002B080BD80B584B000AF021C3960FB1DEE
:100C30001A703B1C0F3310221A70FB1D1B78181CF6
:100C40000021FFF72FFF07E03B681B78181CFFF718
:100C5000DDFF3B6801333B603B681B78002B0ED007
:100C60003B1C0F331B785A1E9341DBB23A1C0F32E8
:100C7000391C0F31097801391170002BE4D1BD46C0
:100C800004B080BD80B500AFFFF7DAFE2820FFF783
:100C900043FE0220FFF740FE0620FFF73DFE0C203A
:100CA000FFF73AFE00200021FFF7FCFEFFF7F2FEFF
:100CB000BD4680BD002934D00123002210B48842F3
:100CC0002CD301242407A14204D2814202D209017B
:100CD0001B01F8E7E400A14204D2814202D249009C
:100CE0005B00F8E7884201D3401A1A434C08A0423F
:100CF00002D3001B5C0822438C08A04202D3001BD5
:100D00009C082243CC08A04202D3001BDC082243EB
:100D1000002803D01B0901D00909E3E7101C10BC0F
:100D20007047002801D00020C04307B4024802A148
:100D30004018029003BDC046D90000000029F0D041
:100D400003B5FFF7B9FF0EBC4243891A1847C046E6
:100D5000002941D010B4041C4C40A44601230022B9
:100D6000002900D54942002800D5404288422CD3B2
:100D700001242407A14204D2814202D209011B01AD
:100D8000F8E7E400A14204D2814202D249005B00AC
:100D9000F8E7884201D3401A1A434C08A04202D314
:100DA000001B5C0822438C08A04202D3001B9C0855
:100DB0002243CC08A04202D3001BDC0822430028B7
:100DC00003D01B0901D00909E3E7101C6446002C7D
:100DD00000D5404210BC7047002806D003DB00203D
:100DE000C043400801E08020000607B4024802A189
:100DF0004018029003BDC046190000000029EBD046
:100E000003B5FFF7A7FF0EBC4243891A1847C04637
:100E10007047C046F0B54D4644465F465646F0B46E
:100E20001D1C4B00141C0E035B0DCA0F87B0071C62
:100E3000360B98469146002B1DD1321C024300D13F
:100E400081E1002E00D104E2301C00F09FFD272834
:100E500000DDF8E12821031C083B0A1A391C9E40DA
:100E6000D1400E439F40C14B0021181A00228046FA
:100E70008A4600920FE0BE48834231D080214B0366
:100E80001E43BC487A0FF600002100231643FF00E2
:100E900080448A460093291C201C251C4A000C0310
:100EA000CB0F240B520D9B4625D1211C014300D1B1
:100EB00050E1002C00D1C2E1201C00F067FD272882
:100EC00000DDB6E1031C2822083B291C121A9C40B5
:100ED000D1400C439D40A54B1A1A0020029019E006
:100EE000321C3A4300D029E108270223BA460026E3
:100EF00000270093CFE79E48824200D113E1802172
:100F00004B031C439B49680FE40000230443ED009E
:100F10005218029348465B4643400298514601935B
:100F200001430F2900D8DFE043469A1A0492A642F3
:100F300000D86EE171087B08F6073343FA0789464B
:100F400098460292280E240204432D022704390CED
:100F5000AB46250C00914846291CFFF7ABFE009FCD
:100F6000061C4743291C4846FFF7E8FE4346080491
:100F70001A0C1043874207D90019013E844203D856
:100F8000874201D9013E0019C11B8A46081C291C51
:100F9000FFF790FE009B071C4343291C50469946CF
:100FA000FFF7CCFE424610040B04010C0B4399459D
:100FB00004D91B19013F9C4200D864E136043E432A
:100FC0005F464A46390C89469B1A59463204170C2B
:100FD0000A0449467943120C03928C460399300C5B
:100FE0007A4341434F4678438C44170C6744B942D7
:100FF00002D9802149024018390C120440183F04DC
:10100000110C7F18834200D227E100D141E10299FF
:101010001B1ACF1BB942804141425A1A9046A24244
:1010200000D15FE1101C291CFFF744FE009B0290D9
:101030004343291C40469A46FFF780FE380C0904BA
:1010400001438A450AD9029A0919013A02928C424F
:1010500004D88A4502D9013A029209195346C81A9E
:10106000291C0590FFF726FE009A291C4243804662
:1010700005989246FFF762FE3F040D043A0C2A439E
:10108000924509D901214B4212199844944203D840
:10109000924501D998441219029D43462F041F43DB
:1010A0005046111A3804030C4D465D430398AC4674
:1010B000039D3A0C584355434B465A43AC44030CEA
:1010C00063449D4202D980256D0252191D0C000413
:1010D00052191B04050C5B19914200D2E6E000D1C5
:1010E0003DE1012217435AE0890023488C466044C1
:1010F00001688F46019B1E4A002600270020002120
:10110000381C0F0D3C051D4D344312052540154379
:101110006E00DB077108194307B03CBC9046994646
:10112000A246AB46F0BD211C03202943029000D00B
:10113000F0E60223002400250293EBE60C200321B5
:1011400082460091A7E604270123BA46002600271D
:101150000093A0E60121002400250291DAE6012790
:101160000023074E7F42024AC8E7C0460DFCFFFF3E
:10117000FF07000001FCFFFFF8190000FFFF0F80D0
:10118000FFFF0F002F1C5A46029D261C0192022DC4
:10119000B0D0032D00D101E1012D00D19CE0049BD2
:1011A00082481A18002A00DC8CE00F243C40042CF2
:1011B00005D03B1DBB42BF417D4276191F1CF1018A
:1011C00005D57B4A04998020C40016400A19794B42
:1011D0009A4200DD8EE77507FF08760251052F431E
:1011E000360B4A0D019B89E700220026002785E780
:1011F000802001030E4216D00C4214D10C4326036A
:10120000360B5B462F1C6C4A78E74C460194009DD8
:10121000BDE7A64243D00498B846013800270490A1
:10122000B14602978EE60E4333031E0B624A4B46CD
:1012300064E7041C283CA5402C1C00254BE600F06C
:10124000A5FB20303BE6061C283EB7403E1C00278D
:1012500009E600F09BFB2030F9E5029A013E111CE3
:1012600059445945924152421219D3189C4204D212
:1012700098426BD816D01B1ACBE6A342FBD18B4504
:10128000F6D9231AC5E6994500D897E6013F1B1900
:1012900094E6029ABA42E0D302990023B9E6AF423B
:1012A000B9D947E68F4251D80023B2E60919013F68
:1012B00058468C4219D9914200D012E7984200D08A
:1012C0000FE76CE73D4C049D631B382B1CDD019B35
:1012D00000220026002711E7019B00222B40002658
:1012E00000270BE701277F4259E78A4203D800D045
:1012F000F7E69842E2D25D4668005845AD416D423E
:101300002C19013F0919D6E71F2B34DC049C2C4A09
:10131000381CA518311CAF40D840A9403C1C0143E3
:10132000671EBC410F1C2743DE400F233B40042BAC
:1013300005D03A1DBA42BF417D427619171C3202D0
:1013400011D5019B012200260027D7E659445945B3
:10135000924152421219D318013E1B1A59E6002B32
:10136000A4D10020AAE77007FF08710207430E0B03
:10137000019B0022C2E61349049C301C0A1BD0408A
:10138000051C202B08D0104BE1188E4037437B1EE4
:101390009F412F430026C8E70026F7E7802210036D
:1013A000064331030E0B019B034AA7E6FF0300002F
:1013B000FFFFFFFEFE070000FF07000002FCFFFF2B
:1013C0001E040000E2FBFFFF3E040000F0B556469D
:1013D00044465F464D46F0B44F001D1C0B03141CE1
:1013E0001A0B7B0D87B0061C92469846CF0F002B38
:1013F00021D1024300D149E15346002B00D1E4E161
:10140000504600F0C3FA031E272B00DDD8E1083B4D
:101410005146994028228846111A321CCA4041463A
:101420000A4392469E40D84B0022181A002180465B
:101430009146039111E0D54883423ED08021534626
:101440004A031A43D000710F0843D14A8246002351
:101450000020F600904499460390291C201C251C6E
:101460004A000C03CB0F240B520D9B4631D1211C9B
:10147000014300D112E1002C00D19DE1201C00F0BD
:1014800085FA272800DD91E1031C2822083B291C4E
:10149000121A9C40D1400C439D40BB4B59461A1A2E
:1014A000794000204B46019103430F2B26D8990029
:1014B000B84B8C46634419688F46111C314300D0E9
:1014C000DFE0082600200221B14682460026039173
:1014D000C3E7AE48824200D1C9E080214B031C43E0
:1014E000AB49680FE4000443ED0052180020594650
:1014F00079404B46019103430F2BD8D94244330422
:10150000290404921A0C0F0C101C7843360C331C5F
:1015100080462D0C7B43301C6843111C69439C465C
:1015200043468346180C08186044844500D91FE1DF
:10153000010C4346039119040B0C0004C01821044C
:10154000240C0590101C6243090C02924843321C83
:1015500066434A43029BB146060C9046B4461A1CA9
:1015600062444244904502D9802673029944160C85
:10157000B046C14400044B46060C12040293931972
:1015800056463204100C021C6A439C46031C7B43E3
:101590009146320C574398461B0C9A46D144B944A5
:1015A00055434F4502D980277E02AD194B461F0C8B
:1015B0004646ED191F0433041E0C031C4B436043C5
:1015C000514354431A0C8018B046401847449A4679
:1015D000814202D980214E02A419039B1A1C624445
:1015E0005A44624589414E425146B34603040E04B3
:1015F0009C460299330C6344CE18B046C246DA4486
:10160000D219BA42BF4151467B426F18F918994628
:10161000DA459B415E42029BB3469845B64176420D
:101620005B461E43000C49459B41AF42AD41361815
:101630006F4258423843361805983419560206430B
:10164000CB0D6402701E8641D20D164349021C4325
:101650000E43E0012FD50127049D374073083E1C3F
:10166000E00701351E4304950643640823E0231C6C
:101670002B430320002B00D039E700240025022053
:1016800035E70C22032391460393E6E60426002364
:101690000120B1469A4600260390DEE6002400258C
:1016A000012024E703985446022844D0032800D19F
:1016B000EAE0012860D0049A37495018002800DC7D
:1016C00095E00F273740042F05D0311DB142B641B8
:1016D000754264190E1CE10105D53048049A802337
:1016E000DF000440D0192E49884224DC019B6507A5
:1016F000F6086402420501272E43240B520D1F40B9
:1017000000200021090D0D052543264C12052C4013
:1017100014436300301C5E08FF07311C394307B0D7
:101720003CBC90469946A246AB46F0BD5A462E1C9C
:1017300001920228BAD1019E01273740134A0024A2
:101740000026DDE7544601970398ADE70126002700
:10175000154C76420D4AD3E72E1CA5E780221303D1
:101760005146194235D10B431D032C0B074AC7E7DD
:1017700080214B029B44DBE6019B00221840C7B24C
:1017800000240026BCE7C0460DFCFFFFFF07000059
:1017900001FCFFFF381A0000FF030000FFFFFFFEFF
:1017A000FE070000FFFF0F80FFFF0F00041C283C16
:1017B000A5402C1C002570E600F0E8F8203060E61B
:1017C000283B9E40B24600262DE600F0DFF8203090
:1017D00019E61C4206D11C432603340B5F462E1C1F
:1017E0002E4A8DE70B431803040B2C4A88E72C4F35
:1017F000049D7B1B382B06DD019E0127374000220C
:10180000002400267CE71F2B21DC049A254F351C81
:10181000D119201C8E40DD408840321C2843561EC2
:10182000B241061C1643DC400F233340042B05D085
:10183000371DB742B641714264183E1C250217D5C8
:10184000019B01271F4001220024002658E716486B
:10185000049A211C871AF9400D1C202B12D0134B1F
:10186000D01884402643721E96412E430024DBE7A5
:10187000019A6507F6086002012717402E43040B02
:1018800000223DE70024EDE780210F033C4301984F
:1018900024030127240B0740004A31E7FF0700001B
:1018A00002FCFFFF1E040000E2FBFFFF3E040000FD
:1018B000134A0B0330B5051C48001C0BC90F430D20
:1018C0000020934211DD0F4883420FDC8022500339
:1018D0000D4A0443D01A1F280BDD0C4DEB1ADC40D7
:1018E000221C5042002900D1101C30BD084C0819A0
:1018F000FBE7C54007482A1C1D18AC402243F0E70F
:10190000FE0300001D040000330400001304000067
:10191000FFFFFF7FEDFBFFFFF8B5041E2DD0C50FC5
:1019200000D04442201C00F031F816490A1A0A2857
:1019300016DD0B388440570526037A0D360B002739
:1019400000200021381C0F0D3B050F4C33431C4079
:101950001605344361004A08ED07111C2943F8BD00
:101960000B26011C301A1531231CC4408B40520534
:1019700021031F1C0E0B520DE2E70025002200265A
:101980000027DDE71E040000FFFF0F801C2101235C
:101990001B04984201D3000C10391B0A984201D352
:1019A000000A08391B09984201D30009043902A230
:1019B000105C40187047C046040302020101010197
:1019C000000000000000000054656D703A00000047
:1019D0004144433A00000000C2060000D006000067
:1019E000DE060000EC060000FA0600000807000012
:1019F0001607000024070000280F0000F410000064
:101A0000E811000084110000E81100005E110000E0
:101A1000E811000084110000F4100000F410000030
:101A20005E110000841100000A1200000A1200007A
:101A30000A120000F0110000FC140000581700000A
:101A4000581700002C170000A4160000A416000070
:101A50004C1700002C170000A41600004C170000C3
:101A6000A41600002C1700004417000044170000C3
:081A7000441700005C170000A0
:0C1A780000093D0000093D0000093D0090
:00000001FF
